:020000040800F2
:10000000F82B0020D10100089F1A00080D1A0008E3
:100010009D1A0008EB0300089D2000080000000066
:10002000000000000000000000000000551E000855
:100030001F04000800000000A11A0008571E000855
:10004000EB010008EB010008EB010008EB010008E0
:10005000EB010008EB010008EB010008EB010008D0
:10006000EB010008EB010008EB010008EB010008C0
:10007000EB010008EB010008EB010008EB010008B0
:10008000EB010008EB010008EB010008EB010008A0
:10009000EB010008EB010008EB010008EB01000890
:1000A000EB010008EB010008EB010008EB01000880
:1000B000EB010008EB010008EB010008EB01000870
:1000C000EB010008EB010008EB010008EB01000860
:1000D000EB010008EB01000891200008EB0100088B
:1000E000EB010008EB010008EB010008EB01000840
:1000F000EB010008EB010008EB010008EB01000830
:10010000EB010008EB010008EB010008EB0100081F
:10011000EB010008EB010008EB010008EB0100080F
:10012000EB010008EB010008EB010008EB010008FF
:1001300000F002F800F03AF80AA090E8000C8244BF
:100140008344AAF10107DA4501D100F02FF8AFF29C
:10015000090EBAE80F0013F0010F18BFFB1A43F0A5
:1001600001031847F02B0000102C0000103A24BFA8
:1001700078C878C1FAD8520724BF30C830C144BF0C
:1001800004680C607047000000230024002500264E
:10019000103A28BF78C1FBD8520728BF30C148BFEA
:1001A0000B6070471FB51FBD10B510BD00F0E4F81F
:1001B0001146FFF7F7FF02F089FB00F002F903B4E4
:1001C000FFF7F2FF03BC00F009F90000854608477D
:1001D0000948804709480047FEE7FEE7FEE7FEE7DB
:1001E000FEE7FEE7FEE7FEE7FEE7FEE70448054917
:1001F000054A064B70470000B71E00083101000891
:10020000F8250020F82B0020F8270020F8270020F0
:10021000B2F120030AD5C2F1200320FA02F001FA5C
:1002200003F321FA02F140EA0300704721FA03F0D8
:100230004FF000017047032A40F2308010F0030CA9
:1002400000F0158011F8013BBCF1020F624498BF29
:1002500011F801CB00F8013B38BF11F8013BA2F1C6
:10026000040298BF00F801CB38BF00F8013B11F041
:10027000030300F04F80083AC0F0088051F8043BB7
:10028000083A51F804CBA0E80810F5E7121D5CBF4E
:1002900051F8043B40F8043BAFF30080D20724BF81
:1002A00011F8013B11F801CB48BF11F8012B24BF15
:1002B00000F8013B00F801CB48BF00F8012B704764
:1002C0004FF0000200B5134694469646203922BFEF
:1002D000A0E80C50A0E80C50B1F12001BFF4F7AF3A
:1002E000090728BFA0E80C5048BF0CC05DF804EB1C
:1002F000890028BF40F8042B08BF704748BF20F88A
:10030000022B11F0804F18BF00F8012B7047704787
:100310007047704710B5203AC0F00B80B1E8185014
:10032000203AA0E81850B1E81850A0E81850BFF4DF
:10033000F5AF5FEA027C24BFB1E81850A0E818507E
:1003400044BF18C918C0BDE810405FEA827C24BFD2
:1003500051F8043B40F8043B08BF7047D20728BF60
:1003600031F8023B48BF11F8012B28BF20F8023BAF
:1003700048BF00F8012B7047754600F02BF8AE46D9
:1003800005006946534620F00700854618B020B5A1
:10039000FFF72CFFBDE820404FF000064FF00007AC
:1003A0004FF000084FF0000B21F00701AC46ACE81D
:1003B000C009ACE8C009ACE8C009ACE8C0098D468A
:1003C000704710B50446AFF300802046BDE81040EA
:1003D000FFF7F5BE00487047982500200149182016
:1003E000ABBEFEE7260002007047FEE770B54AF29A
:1003F0008C2348F208450DE0445C63400024491C0E
:10040000DE074FEA530300D06B40641CE4B2082CB3
:10041000F6D3521E002AEFD1D84380B270BD704788
:1004200072B6FEE706490020C8610648016941F03E
:1004300004010161016941F0400101617047000060
:10044000C000002000200240064A0021D161064978
:100450000A6942F002020A614861086940F04000FE
:1004600008617047C000002000200240044B0022B9
:10047000DA61044A136943F0010313610180704794
:10048000C00000200020024014480022C168CB06B2
:10049000134904D5CA6942F00202CA611022C36836
:1004A0005B0705D5CB6943F00103CB6142F0040241
:1004B000C369DB0707D0CB6943F00403CB61C16993
:1004C00021F00101C161A2F58071013901D0C26042
:1004D0007047C16921F00101C161704700200240ED
:1004E000C000002070B5054600F056FB0646114CD2
:1004F00009E0681C07D025B100F04EFB801BA84224
:1005000001D9032070BDE068C007F2D1E068800621
:1005100001D52020E060E068C00605D4E069C0078E
:1005200002D1E068400703D5FFF7AEFF012070BDA0
:10053000002070BD0020024010B590F8211000226C
:10054000022905D00421816380F82020012010BDFC
:1005500001680B6823F00E030B6001680B6823F041
:1005600001030B6090F84030C46B012101FA03F3E2
:10057000636080F8211080F82020104610BD000034
:100580002DE9F05F90F821100024022903D0042106
:100590008163012485E001680A6822F00E020A6086
:1005A00001680A6822F001020A603F4E3E4FB21510
:1005B000DFF8F4C0DFF8F090DFF8ECA0DFF8E8B087
:1005C000DFF8E4E00168783F13011502ACF1640C38
:1005D000A9F15009AAF13C0AABF1280BAEF1140EB7
:1005E0004FF48018B14227D9B9420ED0614512D0DC
:1005F00049451DD0514518D0594518D0714501D1F4
:10060000424615E0294EB14201D1012210E0274EA9
:100610001436B14201D110220AE0244E2836B142EC
:1006200006D0224A3C32914201D11A4600E02A46C5
:100630001E49091F0A602BE0B94213D0614517D04B
:10064000494522D051451DD059451DD0714501D194
:1006500042461AE0B14202D14FF0807215E0134ECB
:10066000B14201D1012210E0104E1436B14201D145
:1006700010220AE00D4E2836B14206D00B4A3C3219
:10068000914201D11A4600E02A46074980394A6062
:10069000012180F82110002180F82010416B01B168
:1006A00088472046BDE8F09F8000024008040240D1
:1006B000064810B54FF0FF31016100220261C160B0
:1006C000C26000F0A9FA002010BD00000010024036
:1006D00070B5044600F060FA0546601C02D004487C
:1006E0000078044400F058FA401BA042FAD370BDD1
:1006F000000000202DE9F047054626480F46012658
:10070000017E01290FD00121814601762868DFF89A
:1007100088804CF25034022808D0A2462046FFF7C9
:10072000E1FEA8B131E00220BDE8F0872046FFF7E6
:10073000D9FE08BB0120FFF775FE2046FFF7D2FE69
:10074000D8F81010064621F00401C8F810101CE07B
:100750004FF0FF303860AC6811E02046FFF774FEC0
:100760005046FFF7BFFED8F81010060021F0020136
:10077000C8F8101001D03C6007E004F50064D5E92A
:10078000020100EBC120A042E7D8002189F818102F
:100790003046C9E7C000002000200240034801693C
:1007A00041F08001016100207047000000200240FC
:1007B0002DE9F05F07461C4888460024017E154657
:1007C0001E46012909D00121814601764CF2503A9A
:1007D0005046FFF787FE18B122E00220BDE8F09FE7
:1007E000012F02D0022F00D00427D346DFF83CA00F
:1007F000220128463146FFF70BFD81B208EB440089
:10080000FFF734FE5846FFF76DFEDAF8102022F0AD
:100810000102CAF8102018B9641CE4B2BC42E7D344
:10082000002289F81820D9E7C000002000200240EB
:10083000064900200A69120607D5054A4A60054A9A
:100840004A600969090600D501207047002002406E
:1008500023016745AB89EFCD2DE9F0430023454FD8
:100860000F2581E001229A400A407BD023F0030447
:10087000E619D6F808809C074FEA147C05FA0CF9B3
:1008800009EA0804DFF8F080404502D14FF0000883
:1008900024E0DFF8E880404502D14FF001081DE078
:1008A000DFF8DC80404502D14FF0020816E0DFF8A7
:1008B000D480404502D14FF003080FE0DFF8C88034
:1008C000404502D14FF0040808E0DFF8C080404501
:1008D00002D14FF0050801E04FF0060808FA0CF8C5
:1008E000A04522D12A4CD4F800C02CEA020CC4F84E
:1008F00000C0241DD4F800C02CEA020CC4F800C0CB
:10090000234C0C34D4F800C02CEA020CC4F800C00C
:10091000241FD4F800C02CEA020CC4F800C0D6F89A
:1009200008C02CEA090CC6F808C0FF2A01D8064600
:1009300001E000F104064FEA830401D9A4F1200488
:10094000D6F800C005FA04F82CEA080C4FF00408A9
:1009500008FA04F84CEA080CC6F800C0C46824EA97
:100960000204C46003F1010331FA03F27FF47AAFA9
:10097000BDE8F0830000014000080140000C014088
:10098000001001400014014000180140001C01400B
:10099000000401402DE9F84FDFF8C8910024A9F1C7
:1009A000040B23460F2709F1040AABF1040ED1E032
:1009B0000125A54006EA0502AA4276D1DFF8A8C1C2
:1009C0004E68A6EB0C0866452BD00DDC032E34D008
:1009D00005DC36B3012E19D0022E2FD11BE0112ECB
:1009E00016D0122E2AD119E0B8F5881F19D006DCCE
:1009F000B8F5803F15D0B8F5801F1FD111E0B8F5CC
:100A0000001F0ED0B8F5041F18D10AE0CB6815E01E
:100A1000CB681B1D12E0CB6808330FE0CB680C33AA
:100A20000CE08B682BB1012B4FF0080303D045611C
:100A300004E0042302E0056100E00023FF2A01D85E
:100A4000064601E000F104064FEA840501D9A5F14C
:100A50002005D6F8008007FA05FC28EA0C0803FAFE
:100A600005F548EA0508C6F800804D68ED0070D528
:100A70003E4DAE6946F00106AE61AD6924F0030655
:100A800005F0010500953A4D06EB050CDCF8085021
:100A9000A607360F07FA06F825EA0805DFF8D4801E
:100AA000404503D14FF0000825E052E0DFF8C88050
:100AB000404502D14FF001081DE0DFF8C0804045FD
:100AC00002D14FF0020816E0DFF8B480404502D1B1
:100AD0004FF003080FE0DFF8AC80404502D14FF043
:100AE000040808E0DFF8A080404502D14FF0050877
:100AF00001E04FF0060808FA06F848EA0508CCF8C5
:100B000008804D68D9F80060ED024D4601D51643C6
:100B100000E096432E604D68DAF80060AD0255465D
:100B200001D5164300E096432E604D68DBF8006067
:100B3000AD035D4601D5164300E096432E604D6837
:100B4000DEF80060ED03754601D5164300E09643DC
:100B50002E60641C0A681646E2407FF429AFBDE8A7
:100B6000F88F00000804014000001110001002403E
:100B70000000014000080140000C0140001001404D
:100B80000014014000180140001C01400AB101613D
:100B900070470904FBE700000148806870470000C7
:100BA000000000200248816802781144816070478B
:100BB00000000020074810B5016841F010010160F5
:100BC000032000F08BF8002000F006F800F026F873
:100BD000002010BD0020024070B50D4D04464FF4BA
:100BE0007A712878B1FBF0F00A490968B1FBF0F09E
:100BF00000F017FD48B9102C07D200222146501EE4
:100C000000F04CF800206C6070BD012070BD000049
:100C1000000000200C000020704700000E4808B5BE
:100C2000816941F001018161816901F00101009157
:100C3000C16941F08051C161C06900F080500090ED
:100C4000052000F04BF80548416821F0E06141F0D3
:100C50000071416008BD000000100240000001402A
:100C600000280DDB00F01F020121914040098000A7
:100C700000F1E020C0F88011BFF34F8FBFF36F8FFA
:100C80007047002809DB00F01F0201219140400954
:100C9000800000F1E020C0F800117047F0B40E4B66
:100CA0001B680C46C3F30223C3F10705042D00D9CA
:100CB0000425191D072901D2002300E0DB1E0126AF
:100CC00006FA05F1491E214099409E40761E1640C5
:100CD0003143F0BC01F041BC0CED00E0064900F0EE
:100CE000070208684FF6FF03184040EA0220034A53
:100CF00010430860704700000CED00E00000FA05AA
:100D00002DE9F0470F46050061D0434E306800F0F2
:100D10000700B84209D2306820F00700384330603D
:100D2000306800F00700B84251D128683B4C810779
:100D300012D5400703D5606840F4E0606060287811
:100D4000000703D5606840F4605060606068A9687F
:100D500020F0F000084360602878C00728D0686859
:100D6000012810D02168022810D0890700292EDA26
:100D7000616821F0030101436160FFF70DFF8046C8
:100D800041F288390DE021688903EFE78901EDE739
:100D9000FFF702FFA0EB0801494502D90320BDE897
:100DA000F0876068696800F00C00B0EB810FEFD14C
:100DB000306800F00700B8420BD9306820F0070017
:100DC00038433060306800F00700B84201D001209D
:100DD000E5E72878400705D56068E96820F4E06019
:100DE000084360602878000706D56068296920F408
:100DF000605040EAC100606000F0A6F86168084AEF
:100E0000C1F30311515CC8400649086006480068F8
:100E1000FFF7E2FE0020C2E700200240001002407F
:100E20001A2D00080C000020040000202DE9F041DC
:100E3000FFF7B2FE304C0546206840F0010020600C
:100E400005E000BFFFF7A8FE401B022843D820683A
:100E50008007F7D5206820F0F80040F0800020607F
:100E6000FFF79AFE00250646656041F2883704E0E8
:100E7000FFF792FE801BB8422DD8606810F00C0F6F
:100E8000F6D11F491D4808601E480068FFF7A4FE00
:100E900010B10120BDE8F081FFF77EFE0646206814
:100EA00020F08070206004E0FFF776FE801B0228AF
:100EB00011D820688001F7D46560FFF76DFE064603
:100EC000206820F41020206007E000BFFFF764FED8
:100ED000801B642801D90320DCE720688003F5D457
:100EE000206820F480202060606A40F0807060629A
:100EF000A5600020CEE700000010024000127A003A
:100F00000C000020040000200448054900684968DE
:100F1000044AC1F30221515CC84070470C00002014
:100F2000001002402A2D000804480549006849685D
:100F3000044AC1F3C221515CC84070470C00002034
:100F4000001002402A2D00080F4A516801F00C00E1
:100F5000042803D0082803D00C4870470C48704779
:100F60000C48C1F38343C903C05C0AD55168094AE0
:100F7000C1F34041921E515C054A5043B0FBF1F071
:100F800070470549484370470010024000127A003C
:100F9000001BB7000A2D000800093D002DE9F84F9D
:100FA000040070D02078C04DC00749D06868C0F3F5
:100FB0008100012807D06868C0F38100022809D1A8
:100FC0006868C00306D52868800339D560680028A2
:100FD000E7D035E06068B0F5803F0BD010B1B0F5D8
:100FE000A02F11D0286820F480302860286820F4D1
:100FF000802002E0286840F480302860606890B16A
:10100000FFF7CAFD06460AE0286840F48020286001
:10101000F0E700BFFFF7C0FD801B642873D8286885
:101020008003F7D50CE0FFF7B7FD064605E000BFEB
:10103000FFF7B2FD801B6428F0D828688003F7D43E
:1010400020789A4E80074FF001094FF0000839D5FB
:10105000686810F00C0F07D06868C0F381000228A0
:1010600009D16868C00306D42868800714D52069B0
:10107000012808D110E02069B0B1C6F80090FFF750
:101080008BFD074605E00AE1FFF786FDC01B02283D
:10109000C4D828688007F7D52868616920F0F8006F
:1010A00040EAC10028600DE0C6F80080FFF774FD3B
:1010B000074604E0FFF770FDC01B022823D828680C
:1010C0008007F7D4207800072CD57948A169D9B1D9
:1010D000C0F80090FFF760FD074604E0FFF75CFDF5
:1010E000C01B02280FD8686A8007F7D571484FF4F3
:1010F000FA510068B0FBF1F0009000BF0098411E6B
:101100000091FAD20EE080E0C0F80080FFF744FDC5
:10111000074604E0FFF740FDC01B022875D8686A47
:101120008007F7D42078400760D5E8690027C00021
:1011300008D4E86940F08050E861E869012700F0D0
:10114000805000905C480168C90513D4016883464B
:1011500041F480710160FFF71FFD824606E000BF89
:10116000FFF71AFDA0EB0A0064284ED8DBF8000058
:10117000C005F5D5E06801280AD008B1052813D0CC
:10118000286A20F001002862286A20F0040002E0AA
:10119000286A40F001002862E06841F2883B98B17B
:1011A000FFF7FAFC82460BE0286A40F00400286250
:1011B000EEE700BFFFF7F0FCA0EB0A0159455AD853
:1011C000286A8007F6D50CE0FFF7E6FC824605E0CA
:1011D000FFF7E2FCA0EB0A0159454CD8286A8007CA
:1011E000F6D41FB1E86920F08050E861E06988B367
:1011F0006968C1F38101022944D00228C6F86080E1
:1012000004D0FFF7C9FC044638E034E0FFF7C4FC23
:10121000074604E0FFF7C0FCC01B02282BD8286853
:101220008001F7D4206AB0F5803F05D16868A168D5
:1012300020F4003008436860D4E908010843696875
:1012400021F4741108436860C6F86090FFF7A4FCAD
:10125000044606E025E000BFFFF79EFC001B0228C5
:1012600009D828688001F7D51BE000BFFFF794FC80
:10127000001B022802D90320BDE8F88F28688001EE
:10128000F4D40EE00128F7D06868226A00F48031B7
:10129000914204D1616A00F47010884201D00120AB
:1012A000EAE70020E8E700000010024000004242A8
:1012B000800442420C0000200070004010B5040081
:1012C00011D0022084F851002068016821F040010B
:1012D0000160204600F062F80020606584F851004B
:1012E00084F8500010BD012010BD70B5040009D075
:1012F000606A002540B125616561A56294F85100DE
:1013000040B10CE0012070BD6068B0F5827FF4D080
:10131000E561F2E784F85050204600F053F80220CF
:1013200084F851002068016821F040010160A08824
:10133000218900F4827001F404410843A18901F479
:1013400000610843217C01F002010843217D01F086
:1013500001010843218B01F400710843217F01F052
:101360003801084394F8201001F080010843218DD2
:1013700001F40051084321680860A069042101EAD2
:101380001040216848602068C16921F40061C16192
:101390006565012084F85100002070BD0068064991
:1013A000884208D10548816921F480518161E0219A
:1013B0000348FFF751BA7047003001400010024067
:1013C0000008014030B585B00024009401940294D7
:1013D000039400681449884223D11448816941F478
:1013E00080518161816901F480510491816941F0EA
:1013F0000401816180690E4D00F004000490A0207A
:101400000090022001900320039069462846FFF7D0
:10141000C1FA4020CDE90004694628460294FFF74E
:10142000B9FA05B030BD00000030014000100240A4
:10143000000801402DE9FF4F81B0044690F85000AC
:1014400000260E9F1D4693464FF0010901280FD03C
:101450004FF0010A84F850A0FFF79EFB804694F8F5
:101460005100616801280DD0B1F5827F08D103E0F9
:10147000022005B0BDE8F08FA16809B9042801D0A9
:101480000226C9E00298002865D0BBF1000FFBD00E
:10149000002DF9D094F85100042802D0052084F8DA
:1014A000510000206065C4F838B0E587A58702992F
:1014B0002163E586A586206460642068016849068A
:1014C00003D4016841F040010160E068B0F5006FAD
:1014D000606803D0F0B3012D47D081E008B1012D41
:1014E0003CD1206B21680088C860206B801C206381
:1014F000E08E401EE08631E02068816889070FD5C4
:10150000E18E69B1B9F1010F0AD1216B0988C1607F
:10151000206B801C2063E08E401EE0864FF00009A7
:1015200020688168C9070CD0E18F51B1C068A16BF8
:101530000880A06B801CA063E08F401EE0874FF006
:101540000109FFF729FBA0EB0800B84206D3781C7D
:1015500004D001E009E05BE003265BE0E08E0028B8
:10156000CAD1E08F0028C7D140E0206B2168007805
:101570000873206B401C2063E08E401EE0862FE045
:101580002068816889070FD5E18E69B1B9F1010F33
:101590000AD1216B09780173206B401C2063E08E17
:1015A000401EE0864FF0000920688168C9070CD012
:1015B000E18F51B1C068A16B0870A06B401CA063A3
:1015C000E08F401EE0874FF00109FFF7E5FAA0EB3E
:1015D0000800B84202D3781C02D0BAE7002FB8D076
:1015E000E08E0028CCD1E08F0028C9D14246394690
:1015F000204600F0C3FB18B10126202060650BE0F7
:10160000A06818B92068C16880680090606D08B152
:10161000012601E084F851A0002084F850003046F3
:1016200027E710B5401EB0F1807F01D3012010BD27
:101630004FF0E02460610F21601700F08EFF002062
:10164000A06107202061002010BD704710B5040084
:1016500015D0242084F841002068C16821F400518D
:10166000C160204600F076F90020606484F84100F3
:1016700084F8420044F8300F6060207410BD0120EF
:1016800010BD7047F8B5016804460868CA684B6920
:1016900010F00F0F4FF0000559D003F0010602F4CF
:1016A0009077374365D0C10705D0D10503D5616C6C
:1016B00041F001016164410705D5D90703D0616C90
:1016C00041F002016164810705D5D90703D0616C3F
:1016D00041F004016164010707D502F020013143A4
:1016E00003D0616C41F008016164616C00293AD05B
:1016F000800604D5900602D5204600F00CFC206838
:101700004069616CC0F38010090700D460B32046C3
:1017100000F0DAFB20684069400621D520681430CB
:1017200050E8001F21F0400140E80012002AF5D1E6
:10173000E06BA8B16D494163E06BFEF721FF002823
:1017400011D0E06B416B01B0BDE8F0400847830663
:101750000FD593060DD52046BDE8F84000F0DBBB61
:101760002046FFF78EFFF8BD2046FFF78AFF65642D
:10177000F8BD266B2023012E7CD1C6067AD5D6066D
:1017800078D508684868009048694FF0020640061E
:1017900040D5E16B086840680004000CE8D0A28DD9
:1017A0008242E5D9E085886920282DD020680C3058
:1017B00050E8001F21F4807140E80012002AF5D1A2
:1017C0002068143050E8001F21F0010140E80012A9
:1017D000002AF5D12068143050E8001F21F04001A4
:1017E00040E80012002AF5D184F8423025632068D1
:1017F0000C3050E8001F21F0100140E80012002AD0
:10180000F5D1E06BFEF798FE6663A08DE18D401A7E
:1018100081B22AE0A08DE18D401A81B2E08D0028CE
:10182000A6D00029A4D022680C3252E8000F20F480
:10183000907042E80007002FF5D12068143050E87E
:10184000002F22F0010240E80027002FF5D184F894
:101850004230256320680C3050E8002F22F010023F
:1018600040E80023002BF5D166632046FFF7EDFE2C
:10187000F8BDFFE705062BD5150629D594F84100DC
:101880002128F5D1A068B0F5805F01D12069B0B101
:10189000206A411C2162216800784860E08C401E6B
:1018A0000004000CE084E3D12068C16821F08001CD
:1018B000C1602068C16841F04001C160D8E7206A7A
:1018C0000088C0F308004860206A801C2062E5E7B9
:1018D0004006CDD55006CBD5CA68204622F040023E
:1018E000CA6084F8413000F090F8C1E7B91E0008E2
:1018F00070B5040004D094F84100002510B106E052
:10190000012070BD84F84050204600F03DF82420AE
:1019100084F841002068C16821F40051C16020466C
:1019200000F05AFB2068016921F4904101612068B0
:10193000416921F02A0141612068C16841F40051E8
:10194000C1606564202084F8410084F8420065632A
:10195000002070BD10B50068084988420DD10848C4
:10196000C16921F40031C1610C210648FEF774FF02
:10197000BDE810402620FFF773B910BD00440040B9
:10198000001002400008014030B585B000240094EA
:101990000194029403940068184988422BD1184896
:1019A000C16941F40031C161C16901F400310491A0
:1019B000816941F0040181618069124D00F00400E9
:1019C00004900420009002200190032003906946B7
:1019D0002846FEF7DFFF0820CDE9000469462846C7
:1019E0000294FEF7D7FF012211462620FFF756F991
:1019F0002620FFF746F905B030BD00000044004046
:101A0000001002400008014070477047FEE70000E8
:101A1000104810B50E4901604FF4827141600021F9
:101A200002228160C0E903120122426152028261F6
:101A30002822C0E90721416281620A21C162FFF7C1
:101A40003DFC002803D0BDE81040FEF7E9BC10BD06
:101A5000003001401C0000200F4810B50D49016006
:101A60004FF482714160002102228160C0E90312BB
:101A700001224261520282612822C0E907214162AB
:101A800081620A21C162FFF730FC002801D072B6E2
:101A9000FEE710BD003001401C000020FEE7FEE71D
:101AA000704700002DE9F04107460B4815460E46E9
:101AB000007808B900F0D8FBEFF31184202080F300
:101AC00011882A463146384600F008F8E1B281F321
:101AD0001188BDE8F0810000E000002070B50E46DE
:101AE000144900EB400001EBC0051446E86A1835C4
:101AF00020B101280FD0022805D113E0284600F0BC
:101B0000E5FBA04201D2002411E0224631462846DE
:101B100000F002FD0BE0284600F0D8FBA042F4D212
:101B20000446F2E73146284600F0C9FC0446204648
:101B300070BD0000E00000200FB408B504A90091BA
:101B40006A46039900F004F801B05DF814FB000048
:101B50002DE9F04F97B0814607A8029040204FF042
:101B600000080390CDF8108092460C464046CDE91F
:101B7000058900BF14F8011B002971D0252908D060
:101B800002A800F07DFC05980028F3DA17B0BDE844
:101B9000F08F00250121207823281ED02B2819D072
:101BA0002D2802D0302808D102E045F0010501E0DF
:101BB00045F00205641C0029EDD100262078A0F133
:101BC00030010A290CD206EB860100EB4106641CA9
:101BD000303EF3E745F00405ECE745F00805E9E79A
:101BE0000027C1B22E290CD1641C2078A0F130014D
:101BF0000A2906D207EB870100EB4107641C303F3E
:101C0000F3E76C280CD068280AD0662864D00FDC73
:101C100058282FD007DC252859D0462838D15BE03A
:101C200014F8010FEDE763280BD0642830D10FE0E2
:101C300070283FD073282CD0752812D0782827D14F
:101C400018E0DAF80000011DCAF8001001783FE042
:101C5000DAF800003B46011DCAF80010016873E085
:101C60007AE0DAF800003B46011DCAF800100A22AB
:101C7000016807E0DAF800003B46011DCAF80010D1
:101C800001681022CDE9006502A800BF00F08EFBBC
:101C900060E0DAF80000011DCAF80010D0F800502A
:101CA00015F8011BF1B302A800F0EAFB0598002823
:101CB000F6DA4FE0DAF800000822011DCAF8001039
:101CC0000168CDE900281346102202A8DEE725218D
:101CD00002A800F0D5FB3DE0DAF80000C01D20F0BE
:101CE000070101F10800CAF80000D1E9000100F085
:101CF000A3FE834610F1FF4F03D32D2102A800F06D
:101D0000BFFB584600F018FF002800DA4042CDE93A
:101D1000006501463B460A2202A800F0E3FA2E21A4
:101D200002A800E016E000F0ABFB1349584600F0B3
:101D30001FFF00F001FF002800DA4042642190FB01
:101D4000F1F201FB12010223CDE900650A2202A88B
:101D500000F0C8FA641C16E700287FF717AF049854
:101D600020B1024607A94846FFF79CFEDDE90410B2
:101D7000084405900AE700000000C84238B50B4649
:101D8000009204460022802100F008F8002804D0C8
:101D9000606D40F020006065032038BD2DE9F843F8
:101DA0001E46914688460446089DFEF7F5FE401BF8
:101DB000351AFEF7F1FE074625480068C0F3CB3020
:101DC000684338E0701C37D0FEF7E6FEC01BA8421F
:101DD00003D215B1009860B32CE02068416821F06F
:101DE000E00141606068B0F5827F0BD1A068B0F57A
:101DF000004F02D0B0F5806F04D12068016821F057
:101E000040010160A06AB0F5005F09D12068016857
:101E100021F4005101602068016841F40051016023
:101E2000012084F85100002084F850000320BDE810
:101E3000F8830025401E00902068816838EA010080
:101E400004D000214945BDD10020F0E70121F9E788
:101E50000C0000207047FEF7A5BE30B58FB02821DA
:101E60006846FEF72DFA14210AA8FEF729FA012187
:101E70000804CDE900100024029402250491CDE964
:101E80000750000109906846FFF788F808B172B65C
:101E9000FEE70F20CDE90A054FF48060CDE90C4044
:101EA00002210AA80E94FEF72BFF002801D072B67B
:101EB000FEE70FB030BD704710B5406A0021C18504
:101EC000C184FFF7DEFB10BD01680C3151E8002F23
:101ED00022F4907241E80023002BF5D101681431FF
:101EE00051E8002F22F0010241E80023002BF5D138
:101EF000016B012909D101680C3151E8002F22F052
:101F0000100241E80023002BF5D1202180F8421077
:101F100000210163704708B590F84210222901D0D2
:101F2000022008BD82684FF480539A4201D10169B2
:101F300021B1816A9A421BD04AB10AE00268816AE3
:101F40005268C2F308020A80816A891C08E00269AB
:101F500072B10268526802F07F020A70816A491CFD
:101F60008162C18D491E0904090CC18503D01BE0A3
:101F700002685268F1E70168CA6822F02002CA606C
:101F80000168CA6822F48072CA6001684A6922F056
:101F900001024A61202180F8421000214163026B56
:101FA000012A03D0FFF730FD002008BD016301685E
:101FB0000C3151E8002F22F0100241E80023002BE1
:101FC000F5D101680A68D20602D50A68496800910D
:101FD000818DFFF73AFBE7E770B5044600680169B9
:101FE000E26821F44051114301612169A06808436E
:101FF000616908432168CA6841F20C639A4302434D
:10200000CA6020684169A26921F4407111434161AD
:102010001E492068884202D1FEF786FF01E0FEF7E4
:1020200073FF00EBC00101EB0012606864218000C7
:10203000B2FBF0F3B3FBF1F36FF018067343B2FB9E
:10204000F0F5B2FBF0F605EB8305322303EB051543
:10205000B5FBF1F5B6FBF1F605F0F00505EB06155D
:10206000B2FBF0F6B2FBF0F0B0FBF1F06FF018024B
:10207000504306EB800003EB0010B0FBF1F0216849
:1020800000F00F002844886070BD00000038014057
:102090000148FFF7F7BA000074000020FEE70000D7
:1020A00070B5164D0446012210212846FEF76EFD3C
:1020B000240300F069F800F04FF8002220212846A0
:1020C000FEF764FD202000F07DFCC4F3074000F023
:1020D00079FCC4F3072000F075FCE0B200F072FC5C
:1020E000012220212846FEF751FD00F035F8284650
:1020F000BDE8704000221021FEF748BD00100140ED
:102100002DE9F041134F15460C46064600222021CA
:102110003846FEF73BFD032000F054FCC4F30740B3
:1021200000F050FCC4F3072000F04CFCE0B200F0DB
:1021300049FC002405E0FF2000F044FC3055641CFD
:10214000A4B2AC42F7D33846BDE8F04101222021C9
:10215000FEF71CBD0010014010B50A4C00222021E2
:102160002046FEF713FD052000F02CFCFF2000F0B8
:1021700029FCC007FAD120460122BDE810402021E9
:10218000FEF704BD0010014010B5084C00222021CC
:102190002046FEF7FBFC062000F014FC204601223E
:1021A000BDE810402021FEF7F1BC00000010014006
:1021B0002DE9F04115460C460646FFF7E5FF134FA3
:1021C000002220213846FEF7E1FC022000F0FAFB55
:1021D000C4F3074000F0F6FBC4F3072000F0F2FB65
:1021E000E0B200F0EFFB002404E0305D00F0EAFB19
:1021F000641CA4B2AC42F8D3012220213846FEF779
:10220000C5FCBDE8F041FFF7A7BF0000001001408A
:102210002DE9F047DFF84C8014460E468146012236
:1022200010214046FEF7B2FCF0B2C0F580754FF4C5
:102230008077AC4205D8224631464846FFF7B8FFC2
:1022400009E02A4631464846FFF7B2FF601B040406
:10225000240C3D46EDD14046BDE8F0470022102158
:10226000FEF794BC0010014010B5134CA821204685
:10227000FEF726F803202061606110A0A06104F140
:10228000A800E0614FF4806020620020A0626062DC
:10229000E0620AA1216604F5956161661021A166DC
:1022A0002067E06660670849C0F10F028A5C22542B
:1022B000401C1028F8D310BDE00000205465726D5A
:1022C000696E616C00000000322D00080269C1686F
:1022D0008A4203D88068401A104400E0501A401E19
:1022E000704700002DE9FC5F0E008146DDE90C47D8
:1022F000C6F1000098469346824600D40846012560
:1023000003E000BF90FBFBF06D1C5845FADAA845CE
:1023100000D9454624B1002E01DB780700D5641EA4
:10232000B80702D5B8F1000F0FD0F8070DD164B18E
:10233000A5420AD220214846641E00F0A1F8D9F82F
:102340000C000028F3DABDE8FC9FD9F80C00002847
:10235000F9DB002E02DA56462D2102E0780707D578
:102360002B21484600F08CF8D9F80C000028EADB55
:1023700007F0030002280FD1B8F1000F0CD15CB1B7
:10238000A54209D230214846641E00F079F8D9F8F8
:102390000C000028F3DAD6E7CDE9004743465A4659
:1023A0003146484600F002F8CDE700002DE9F84F2D
:1023B0008246DDE90A4B0126984691460D460846BD
:1023C000374602E0B0FBF9F07F1C4845FAD2B84529
:1023D00000D947465FEACB7017D1B4B15FEA8B7082
:1023E00002D5B8F1000F02D0202000900BE0302081
:1023F000FBE75046641E009900F042F8DAF80C0042
:10240000002838DB0CB1A742F3D3DAF80C0000281F
:1024100031DB00BFB8F1010F02D9A8F1010803E0D8
:10242000B5FBF6F0484502D306FB09F6F2E7DFF804
:102430004C8000BFB5FBF6F000FB165518F80010F5
:10244000504600F01DF8DAF80C00002803DBB6FB5C
:10245000F9F6002EEED15FEACB700CD0002C0AD03A
:10246000A74208D220215046641E00F009F8DAF88D
:102470000C000028F2DABDE8F88F0000432D0008B8
:1024800010B50446D4E90130421C934205D32368B9
:102490001954A260E068401CE060D4E90102824265
:1024A00009D121682069FFF7FDFAA168884203D0AD
:1024B0004FF0FF30E06010BD0020A06010BD2DE99E
:1024C000F047C4681746894606464FF00008306951
:1024D000A04201D9051B02E0B168201A0D1AB068AC
:1024E0006D1E001BA84200D80546BD4200D33D46E4
:1024F00070682A4620444946FDF79DFEB0687F1B60
:102500002C44A844A944A04200D10024F460002F28
:10251000DDD14046BDE8F0872DE9F041044688460C
:10252000D4E90207C51BE168606816460844B54255
:1025300006D94146FDF77FFEB819E060BDE8F0819D
:102540002A464146FDF777FE761B08EB0501324629
:102550006068FDF770FEE660F0E70907090E0028E5
:1025600004DB00F1E02080F80014704700F00F0059
:1025700000F1E02080F8141D704700002DE9F84FAD
:1025800000264FF48C75C820FEF7A2F805226A4990
:102590006A48FFF7B5FD694C69A10020D4F8013005
:1025A0002278FFF7C9FA2078DFF8ACA15A2872D157
:1025B0004FF4805BD4F801202B4668A10020FFF780
:1025C000BBFAD4F801005A46904216D32903714849
:1025D000FFF796FD6420FEF77BF8D4F801004FF476
:1025E0008062A0F58050C4F801000AEB063069490A
:1025F00000F0FAF96D1C761C58E04FF004092F0327
:102600006420FEF765F8B4F80100394682B26148EB
:10261000FFF776FDD4F80120002002F00301DFF877
:1026200074C1FF23C1F1040105E000BF0CEB0008F9
:10263000401C02F808308142F8D80A4444F8012FBF
:1026400000215448FDF7D2FE00906420FEF740F8C8
:1026500020685049C0F38F020AEB0630804600F034
:10266000C3F96420FEF734F820684B49C0F38F02A9
:10267000404600F099F954F8012900214648FDF739
:10268000B5FE0099814207D10020C4F80100B9F1DC
:10269000000F07D00FE01FE0A9F10100C0B25FEA10
:1026A0000009ADD13DA10020FFF746FAD4F80100A2
:1026B00000287FF47FAF40F21710FFF7F1FC642091
:1026C000FEF706F81D4805221B49401FFFF7A0FD35
:1026D0003BA10020FFF730FA424841490C2201603B
:1026E0004FF4E131416000218160C160C0E9041212
:1026F0008161C161FEF7AAFF08B1FDF791FEFFF706
:1027000087F93948816921F010018161816921F0DF
:102710000401816130213548FEF79EF8FEF786FB03
:10272000FDF7C6FF6420FDF7D3FF5046BDE8F84F24
:102730000949091DFDF74ABD007011001500002070
:102740002020666C61673A256420627974655F6E4B
:10275000756D3A25640A0000005000080A20202DFB
:102760002D2D2D2D2D3E6170702E70726F67726150
:102770006D2E646174615F627974655F6E756D283A
:102780002564297732357831365F61646472282593
:1027900078290A0098050020981500200A20207743
:1027A0007269746520696E7465726E616C20666C06
:1027B000617368206661696C2E2E2E2E2E0A000031
:1027C0002020777269746520696E7465726E616C21
:1027D00020666C61736820737563636573730A00A8
:1027E000004400407400002000100240001001402E
:1027F000124810B5416A490101D511A117E0416A9B
:10280000090101D512A112E0416AC90001D515A143
:102810000DE0416A890001D517A108E0416A49002D
:1028200001D51DA103E0406A002803DA21A10020A0
:10283000FFF782F924490120086010BD0010024012
:1028400050494E207265736574200D0A0000000027
:10285000504F522F504452207265736574200D0AF8
:1028600000000000536F66747761726520726573B3
:10287000657420200D0A0000496E646570656E6401
:10288000656E74207761746368646F672072657326
:102890006574200D0A00000057696E646F77207719
:1028A00061746368646F67207265736574200D0AD4
:1028B000000000004C6F772D706F77657220726595
:1028C000736574200D0A0000E004424286B0FEF7F2
:1028D00071F9FFF7C2FAFFF78BFF00242648009436
:1028E000019402940394816941F01001816181692E
:1028F00001F010010491816941F004018161806956
:102900001E4D00F004000490012230212846FEF7FD
:102910003DF9302000900120CDE901040220039010
:1029200069462846FEF736F8FFF796F81549144829
:1029300008604FF4E130C1E901040C20CC60C1E92A
:1029400004408C610846CC61FEF7D2FF08B172B634
:10295000FEE7012220212846FEF718F90022102167
:102960002846FEF713F908A10020FFF7E5F800BF9D
:10297000FFF704FEFCE700000010024000100140D9
:102980000044004074000020202049415020424F64
:102990004F5420696E697420636F6D706C65746547
:1029A0002E2E2E0A0000000010B5002306E000BF06
:1029B00050F8234041F823405B1C9BB29342F7D36D
:1029C00010BD000001B582B000208DF80400642025
:1029D0000090012301AA02A90248FEF72BFD9DF8F1
:1029E00004000EBD1C0000202DE9F04186B000243B
:1029F00017468846054626460494FDF719FF02202F
:102A0000CDE9025004A900966846FDF773FE0EE07A
:102A100058F8242005EB840100230220FDF7C8FEAE
:102A200018B1012006B0BDE8F081641CA4B2BC421C
:102A3000EED3FDF7B3FEF5E721F00042A2F16052BC
:102A4000B2F5801F01F0004328BFD2F17F6C0BD993
:102A50005FEA001C43EAC20242EB507018BF7047A5
:102A600028BF20F001007047B2F5801FBCBF184698
:102A700070474FEA410C1CF5001F02D2084600F0D7
:102A80003EB970B500F009F800000089FFF7F6BF05
:102A90004FF00040A0F5800070470EF1020E2EF0BE
:102AA000030E5EF8046B364205D4012A43EB03059E
:102AB00015F5001F12D8012841EB010C1CF5001F71
:102AC0000CD80ED14FEAD17C15F5001F0CEB4C0C45
:102AD0000CF1020C08BF4CEBD37C04E04FF0080C67
:102AE00001E04FEAD37C0CEB4C0526FA05F606F024
:102AF0000706B6F1040C06D20EEB860CBDE870405A
:102B00004CF0010C6047DFE80CF0090B02024FF0BB
:102B100000414FF00000A1F5002170BD194610469C
:102B2000012851EB010418BFD4F5001484BF002024
:102B300001F0004170BD000041000B0ED3F19E0278
:102B400008D950F400034FEA032323FA02F048BFE8
:102B50004042704710B500F08CF800BF49922480C5
:102B6000002070476FF0004282EA200070470000AA
:102B70004FF47F0C1CEAD0121EBF1CEAD11392EA5C
:102B80000C0F93EA0C0F00F0478090EA010F48BF4A
:102B900042F480724FF0004C4CEA00204CEA0121D4
:102BA00002EB0302A0FB0113A2F50002002918BFEB
:102BB00043F001035B0028BF4FEA330342EB22429C
:102BC0005FEA132C4CEBC2502EBFBCEB436FB2F547
:102BD0007C0F70474FEA036CBCF1004F08BF20F038
:102BE0000100B2F57C0F38BF70470BD582F0FF02B1
:102BF00012F5803FC8BF704700F1C040D8BF00F059
:102C00000040704700F5000C5FEA4C0C48BF70476D
:102C1000B0F1C04000F073B890EA010F0CEAD11394
:102C200048BF42F48072624538BF634504D280EAEF
:102C3000010000F00040704710B500F01AF800BF26
:102C40008900013E00F007B800F009B85FEA410CC6
:102C50005FEA1C6C08D080EA010000F050B85FEA1F
:102C6000400C5FEA1C6CF6D14FF00040A0F58000EC
:102C700070470EF1020E2EF0030E5EF8044B244254
:102C800004D44FEA4102B2F17F4F11D84FEA40031A
:102C9000B3F17F4F0CD80ED14FEAD07CB2F17F4F09
:102CA0000CEB4C0C0CF1020C08BF4CEBD17C04E09B
:102CB0004FF0080C01E04FEAD17C0CEB4C0324FAF6
:102CC00003F404F00704B4F1040C06D20EEB840CF8
:102CD000BDE810404CF0010C6047DFE80CF007083D
:102CE00002024FF00040A0F5800010BD08464200EF
:102CF00018BFD2F1807288BF00F0004010BDFF21E4
:102D000041EAD050C00570470102020304050607DE
:102D100008090A0B0C0D0E0F101000000000000037
:102D20000000010203040607080900000000010278
:102D3000030400000000000054545220524547474D
:102D40004553003031323334353637383941424318
:102D500044454600742D0008000000201C000000BF
:102D60006C010008902D00081C000020DC2B0000E6
:102D700088010008010000001000000000000000B1
:102D80000024F400FEFEFEFEFE0000000000000035
:0400000508000131BD
:00000001FF
